{
  "_format": "hh-sol-artifact-1",
  "contractName": "StakingContract",
  "sourceName": "contracts/StakingContract.sol",
  "abi": [
    {
      "inputs": [
        {
          "internalType": "address",
          "name": "_token",
          "type": "address"
        }
      ],
      "stateMutability": "nonpayable",
      "type": "constructor"
    },
    {
      "anonymous": false,
      "inputs": [
        {
          "indexed": true,
          "internalType": "address",
          "name": "user",
          "type": "address"
        },
        {
          "indexed": false,
          "internalType": "uint256",
          "name": "amount",
          "type": "uint256"
        },
        {
          "indexed": false,
          "internalType": "uint256",
          "name": "duration",
          "type": "uint256"
        }
      ],
      "name": "Staked",
      "type": "event"
    },
    {
      "anonymous": false,
      "inputs": [
        {
          "indexed": true,
          "internalType": "address",
          "name": "user",
          "type": "address"
        },
        {
          "indexed": false,
          "internalType": "uint256",
          "name": "amount",
          "type": "uint256"
        }
      ],
      "name": "Withdrawn",
      "type": "event"
    },
    {
      "inputs": [
        {
          "internalType": "uint256",
          "name": "amount",
          "type": "uint256"
        },
        {
          "internalType": "uint256",
          "name": "duration",
          "type": "uint256"
        }
      ],
      "name": "stake",
      "outputs": [],
      "stateMutability": "nonpayable",
      "type": "function"
    },
    {
      "inputs": [
        {
          "internalType": "address",
          "name": "",
          "type": "address"
        }
      ],
      "name": "stakes",
      "outputs": [
        {
          "internalType": "uint256",
          "name": "amount",
          "type": "uint256"
        },
        {
          "internalType": "uint256",
          "name": "startTimestamp",
          "type": "uint256"
        },
        {
          "internalType": "uint256",
          "name": "duration",
          "type": "uint256"
        },
        {
          "internalType": "uint256",
          "name": "interestRate",
          "type": "uint256"
        },
        {
          "internalType": "bool",
          "name": "active",
          "type": "bool"
        }
      ],
      "stateMutability": "view",
      "type": "function"
    },
    {
      "inputs": [],
      "name": "token",
      "outputs": [
        {
          "internalType": "contract IERC20",
          "name": "",
          "type": "address"
        }
      ],
      "stateMutability": "view",
      "type": "function"
    },
    {
      "inputs": [],
      "name": "withdraw",
      "outputs": [],
      "stateMutability": "nonpayable",
      "type": "function"
    }
  ],
  "bytecode": "0x608060405234801561001057600080fd5b5060405162000f8138038062000f81833981810160405281019061003491906100de565b80600160006101000a81548173ffffffffffffffffffffffffffffffffffffffff021916908373ffffffffffffffffffffffffffffffffffffffff1602179055505061010b565b600080fd5b600073ffffffffffffffffffffffffffffffffffffffff82169050919050565b60006100ab82610080565b9050919050565b6100bb816100a0565b81146100c657600080fd5b50565b6000815190506100d8816100b2565b92915050565b6000602082840312156100f4576100f361007b565b5b6000610102848285016100c9565b91505092915050565b610e66806200011b6000396000f3fe608060405234801561001057600080fd5b506004361061004c5760003560e01c806316934fc4146100515780633ccfd60b146100855780637b0472f01461008f578063fc0c546a146100ab575b600080fd5b61006b60048036038101906100669190610832565b6100c9565b60405161007c959493929190610893565b60405180910390f35b61008d61010c565b005b6100a960048036038101906100a49190610912565b6104c4565b005b6100b36107a9565b6040516100c091906109b1565b60405180910390f35b60006020528060005260406000206000915090508060000154908060010154908060020154908060030154908060040160009054906101000a900460ff16905085565b6000803373ffffffffffffffffffffffffffffffffffffffff1673ffffffffffffffffffffffffffffffffffffffff16815260200190815260200160002060040160009054906101000a900460ff1661019a576040517f08c379a000000000000000000000000000000000000000000000000000000000815260040161019190610a29565b60405180910390fd5b60008060003373ffffffffffffffffffffffffffffffffffffffff1673ffffffffffffffffffffffffffffffffffffffff1681526020019081526020016000206000015490506000803373ffffffffffffffffffffffffffffffffffffffff1673ffffffffffffffffffffffffffffffffffffffff168152602001908152602001600020600201546000803373ffffffffffffffffffffffffffffffffffffffff1673ffffffffffffffffffffffffffffffffffffffff1681526020019081526020016000206001015461026e9190610a78565b4210156102b0576040517f08c379a00000000000000000000000000000000000000000000000000000000081526004016102a790610b1e565b60405180910390fd5b600060646000803373ffffffffffffffffffffffffffffffffffffffff1673ffffffffffffffffffffffffffffffffffffffff16815260200190815260200160002060030154836103019190610b3e565b61030b9190610baf565b90506000818361031b9190610a78565b90506000803373ffffffffffffffffffffffffffffffffffffffff1673ffffffffffffffffffffffffffffffffffffffff1681526020019081526020016000206000808201600090556001820160009055600282016000905560038201600090556004820160006101000a81549060ff02191690555050600160009054906101000a900473ffffffffffffffffffffffffffffffffffffffff1673ffffffffffffffffffffffffffffffffffffffff1663a9059cbb33836040518363ffffffff1660e01b81526004016103ef929190610bef565b6020604051808303816000875af115801561040e573d6000803e3d6000fd5b505050506040513d601f19601f820116820180604052508101906104329190610c44565b610471576040517f08c379a000000000000000000000000000000000000000000000000000000000815260040161046890610cbd565b60405180910390fd5b3373ffffffffffffffffffffffffffffffffffffffff167f7084f5476618d8e60b11ef0d7d3f06914655adb8793e28ff7f018d4c76d505d5826040516104b79190610cdd565b60405180910390a2505050565b62278d008114806104d757506276a70081145b610516576040517f08c379a000000000000000000000000000000000000000000000000000000000815260040161050d90610d44565b60405180910390fd5b6000803373ffffffffffffffffffffffffffffffffffffffff1673ffffffffffffffffffffffffffffffffffffffff16815260200190815260200160002060040160009054906101000a900460ff16156105a5576040517f08c379a000000000000000000000000000000000000000000000000000000000815260040161059c90610db0565b60405180910390fd5b600160009054906101000a900473ffffffffffffffffffffffffffffffffffffffff1673ffffffffffffffffffffffffffffffffffffffff166323b872dd3330856040518463ffffffff1660e01b815260040161060493929190610dd0565b6020604051808303816000875af1158015610623573d6000803e3d6000fd5b505050506040513d601f19601f820116820180604052508101906106479190610c44565b610686576040517f08c379a000000000000000000000000000000000000000000000000000000000815260040161067d90610cbd565b60405180910390fd5b600062278d00821461069957606461069c565b60325b60ff1690506040518060a00160405280848152602001428152602001838152602001828152602001600115158152506000803373ffffffffffffffffffffffffffffffffffffffff1673ffffffffffffffffffffffffffffffffffffffff1681526020019081526020016000206000820151816000015560208201518160010155604082015181600201556060820151816003015560808201518160040160006101000a81548160ff0219169083151502179055509050503373ffffffffffffffffffffffffffffffffffffffff167f1449c6dd7851abc30abf37f57715f492010519147cc2652fbc38202c18a6ee90848460405161079c929190610e07565b60405180910390a2505050565b600160009054906101000a900473ffffffffffffffffffffffffffffffffffffffff1681565b600080fd5b600073ffffffffffffffffffffffffffffffffffffffff82169050919050565b60006107ff826107d4565b9050919050565b61080f816107f4565b811461081a57600080fd5b50565b60008135905061082c81610806565b92915050565b600060208284031215610848576108476107cf565b5b60006108568482850161081d565b91505092915050565b6000819050919050565b6108728161085f565b82525050565b60008115159050919050565b61088d81610878565b82525050565b600060a0820190506108a86000830188610869565b6108b56020830187610869565b6108c26040830186610869565b6108cf6060830185610869565b6108dc6080830184610884565b9695505050505050565b6108ef8161085f565b81146108fa57600080fd5b50565b60008135905061090c816108e6565b92915050565b60008060408385031215610929576109286107cf565b5b6000610937858286016108fd565b9250506020610948858286016108fd565b9150509250929050565b6000819050919050565b600061097761097261096d846107d4565b610952565b6107d4565b9050919050565b60006109898261095c565b9050919050565b600061099b8261097e565b9050919050565b6109ab81610990565b82525050565b60006020820190506109c660008301846109a2565b92915050565b600082825260208201905092915050565b7f596f7520646f206e6f74206861766520616e79207374616b6573000000000000600082015250565b6000610a13601a836109cc565b9150610a1e826109dd565b602082019050919050565b60006020820190508181036000830152610a4281610a06565b9050919050565b7f4e487b7100000000000000000000000000000000000000000000000000000000600052601160045260246000fd5b6000610a838261085f565b9150610a8e8361085f565b9250828201905080821115610aa657610aa5610a49565b5b92915050565b7f596f7572205374616b65204475726174696f6e204861736e277420456c61707360008201527f6564205965740000000000000000000000000000000000000000000000000000602082015250565b6000610b086026836109cc565b9150610b1382610aac565b604082019050919050565b60006020820190508181036000830152610b3781610afb565b9050919050565b6000610b498261085f565b9150610b548361085f565b9250828202610b628161085f565b91508282048414831517610b7957610b78610a49565b5b5092915050565b7f4e487b7100000000000000000000000000000000000000000000000000000000600052601260045260246000fd5b6000610bba8261085f565b9150610bc58361085f565b925082610bd557610bd4610b80565b5b828204905092915050565b610be9816107f4565b82525050565b6000604082019050610c046000830185610be0565b610c116020830184610869565b9392505050565b610c2181610878565b8114610c2c57600080fd5b50565b600081519050610c3e81610c18565b92915050565b600060208284031215610c5a57610c596107cf565b5b6000610c6884828501610c2f565b91505092915050565b7f5472616e73666572206661696c65640000000000000000000000000000000000600082015250565b6000610ca7600f836109cc565b9150610cb282610c71565b602082019050919050565b60006020820190508181036000830152610cd681610c9a565b9050919050565b6000602082019050610cf26000830184610869565b92915050565b7f496e76616c6964206475726174696f6e00000000000000000000000000000000600082015250565b6000610d2e6010836109cc565b9150610d3982610cf8565b602082019050919050565b60006020820190508181036000830152610d5d81610d21565b9050919050565b7f416c7265616479207374616b6564000000000000000000000000000000000000600082015250565b6000610d9a600e836109cc565b9150610da582610d64565b602082019050919050565b60006020820190508181036000830152610dc981610d8d565b9050919050565b6000606082019050610de56000830186610be0565b610df26020830185610be0565b610dff6040830184610869565b949350505050565b6000604082019050610e1c6000830185610869565b610e296020830184610869565b939250505056fea26469706673582212207937cadc1d061fc05e497f2aef8d5d9e67fe10013e6180915f416602b556381064736f6c63430008180033",
  "linkReferences": {},
  "deployedLinkReferences": {}
}